{
	"data": {
		"bytecode": {
			"linkReferences": {},
			"object": "60806040526001600055348015601457600080fd5b5060aa806100236000396000f3fe6080604052348015600f57600080fd5b506004361060325760003560e01c806306661abd146037578063e5071b8e146053575b600080fd5b603d605b565b6040518082815260200191505060405180910390f35b60596061565b005b60005481565b600080815480929190600101919050555056fea2646970667358221220618f94bad7891a9001f7da308574f4a7934669ed0c3235ca9a01f32a9a3c5b5564736f6c63430007060033",
			"opcodes": "PUSH1 0x80 PUSH1 0x40 MSTORE PUSH1 0x1 PUSH1 0x0 SSTORE CALLVALUE DUP1 ISZERO PUSH1 0x14 JUMPI PUSH1 0x0 DUP1 REVERT JUMPDEST POP PUSH1 0xAA DUP1 PUSH2 0x23 PUSH1 0x0 CODECOPY PUSH1 0x0 RETURN INVALID PUSH1 0x80 PUSH1 0x40 MSTORE CALLVALUE DUP1 ISZERO PUSH1 0xF JUMPI PUSH1 0x0 DUP1 REVERT JUMPDEST POP PUSH1 0x4 CALLDATASIZE LT PUSH1 0x32 JUMPI PUSH1 0x0 CALLDATALOAD PUSH1 0xE0 SHR DUP1 PUSH4 0x6661ABD EQ PUSH1 0x37 JUMPI DUP1 PUSH4 0xE5071B8E EQ PUSH1 0x53 JUMPI JUMPDEST PUSH1 0x0 DUP1 REVERT JUMPDEST PUSH1 0x3D PUSH1 0x5B JUMP JUMPDEST PUSH1 0x40 MLOAD DUP1 DUP3 DUP2 MSTORE PUSH1 0x20 ADD SWAP2 POP POP PUSH1 0x40 MLOAD DUP1 SWAP2 SUB SWAP1 RETURN JUMPDEST PUSH1 0x59 PUSH1 0x61 JUMP JUMPDEST STOP JUMPDEST PUSH1 0x0 SLOAD DUP2 JUMP JUMPDEST PUSH1 0x0 DUP1 DUP2 SLOAD DUP1 SWAP3 SWAP2 SWAP1 PUSH1 0x1 ADD SWAP2 SWAP1 POP SSTORE POP JUMP INVALID LOG2 PUSH5 0x6970667358 0x22 SLT KECCAK256 PUSH2 0x8F94 0xBA 0xD7 DUP10 BYTE SWAP1 ADD 0xF7 0xDA ADDRESS DUP6 PUSH21 0xF4A7934669ED0C3235CA9A01F32A9A3C5B5564736F PUSH13 0x63430007060033000000000000 "
		},
		"gasEstimates": {
			"creation": {
				"codeDepositCost": "34000",
				"executionCost": "20093",
				"totalCost": "54093"
			},
			"external": {
				"count()": "983",
				"incrementCount()": "20981"
			}
		},
		"methodIdentifiers": {
			"count()": "06661abd",
			"incrementCount()": "e5071b8e"
		}
	},
	"abi": [
		{
			"inputs": [],
			"name": "count",
			"outputs": [
				{
					"internalType": "uint256",
					"name": "",
					"type": "uint256"
				}
			],
			"stateMutability": "view",
			"type": "function"
		},
		{
			"inputs": [],
			"name": "incrementCount",
			"outputs": [],
			"stateMutability": "nonpayable",
			"type": "function"
		}
	]
}